:100000000C942A000C9447000C9447000C94470071
:100010000C9447000C9447000C9447000C94470044
:100020000C9447000C9447000C9447000C94470034
:100030000C9447000C9447000C9447000C94470024
:100040000C9447000C9447000C9447000C94470014
:100050000C94470011241FBECFE5D8E0DEBFCDBF12
:1000600010E0A0E6B0E0ECE6FDE002C005900D92E5
:10007000A63BB107D9F721E0A6EBB0E001C01D9285
:10008000A630B207E1F70E940D030C94B4060C945D
:1000900000000E94C6050E94C0030E94120360E097
:1000A00080E00E94E7048CE790E00E943A042FEF82
:1000B00087EA91E6215080409040E1F700C00000BF
:1000C0000E94020560E080E00E94E70487E890E07B
:1000D0000E943A0460E081E00E94E70480E990E039
:1000E0000E943A042FEF87EA91E621508040904029
:1000F000E1F700C000000E94020508950E94020579
:100100001092BA001092B8001092B9001092BB0081
:100110001092BC001092BD001092BE00E0ECF0E026
:100120008AEC90E01192E817F907E1F78AE08093F2
:10013000B700EAECF0E086E091E0119211921192A2
:100140001192E817F907C9F78FE08093B600089578
:100150008091B800E82FF0E0E054FF4F9091BF008D
:1001600090839091B9009F5F9093B9008F5F8093C7
:10017000B8000895E091B900F0E0EE0FFF1FEE0F18
:10018000FF1FE653FF4F80819181A281B381880FC9
:10019000991FAA1FBB1FAC01BD01440F551F661F4D
:1001A000771F440F551F661F771F840F951FA61FCB
:1001B000B71F4091BF0050E040535109052E000C7D
:1001C000660B770B840F951FA61FB71F8083918343
:1001D000A283B383089560E081E00E94E7048BE985
:1001E00090E00E943A042FEF87EA91E62150804088
:1001F0009040E1F700C000001092BA001092B800E1
:100200001092B9001092BB001092BC001092BD0079
:100210001092BE00E0ECF0E08AEC90E01192E8175A
:10022000F907E1F78AE08093B700EAECF0E086E0B6
:1002300091E01192119211921192E817F907C9F702
:100240008FE08093B6000E94020508950F931F93DC
:10025000CF93C091B7008C2F90E08C01000F111F3D
:10026000000F111F06531F4F880F991F880F991FEA
:10027000FC01E253FF4F2081318142815381F8011B
:1002800060817181828193810E94490660837183BC
:1002900082839383C093B6005091B800C51740F590
:1002A0008C2F90E09C012F5F3F4FF901E054FF4FEE
:1002B0004081FC01E054FF4F4083880F991F880F55
:1002C000991FFC01EE52FF4F80819181A281B38181
:1002D000220F331F220F331FF901E653FF4F808394
:1002E0009183A283B383CF5FC513DACF5093B60057
:1002F000CF911F910F9108950F931F93CF93C091AA
:10030000B7008C2F90E0FC01EE0FFF1FEE0FFF1FD8
:10031000E253FF4F20813181428153812115310504
:100320004105510521F481E08093BA0013C0880F84
:10033000991F880F991F8C0106531F4FF801608188
:100340007181828193810E945906F8012083318353
:1003500042835383C093B6005091B800C51740F54F
:100360008C2F90E09C012F5F3F4FF901E054FF4F2D
:100370004081FC01E054FF4F4083880F991F880F94
:10038000991FFC01EE52FF4F80819181A281B381C0
:10039000220F331F220F331FF901E653FF4F8083D3
:1003A0009183A283B383CF5FC513DACF5093B60096
:1003B000CF911F910F9108951092B7008091B800CE
:1003C000882309F491C080E090E0FC01E054FF4FE5
:1003D0002081283769F5FC01E054FF4F81818F327D
:1003E00009F053C08091B70090E0FC01E054FF4F4A
:1003F0002081283709F06EC0FC01E054FF4F818155
:100400008F3209F067C00E9426010E947C01809112
:10041000B70090E0FC01E054FF4F2081283709F03D
:1004200059C0FC01E054FF4F81818F3261F352C00B
:100430002F3209F04FC0FC01E054FF4F8181883713
:10044000B9F58091B70090E0FC01E054FF4F2081A6
:100450002F3209F03FC0FC01E054FF4F8181883703
:10046000C9F50E947C010E9426018091B70090E0AE
:10047000FC01E054FF4F20812F3261F5FC01E05474
:10048000FF4F8181883769F325C0E091B700F0E024
:10049000E054FF4F80818837E9F40E942601E09103
:1004A000B700F0E0E054FF4F80818837B1F312C00D
:1004B000E091B700F0E0E054FF4F80818F3251F4BB
:1004C0000E947C01E091B700F0E0E054FF4F808192
:1004D0008F32B1F38091B7008F5F8093B700909116
:1004E000B800891708F470CF8091CA009091CB00B2
:1004F000A091CC00B091CD008093BB009093BC0044
:10050000A093BD00B093BE000895CF92DF92EF920A
:10051000FF921092B7009091B8009923B9F14091E1
:10052000BB005091BC006091BD007091BE00E0EC3A
:10053000F0E0AEECB0E02FEF290F30E02F533F4F4B
:1005400081918B3251F4CD90DD90ED90FC9013971A
:100550004C0D5D1D6E1D7F1D0BC08D3249F4CD907D
:10056000DD90ED90FC9013974C195D096E097F09A1
:100570001496E217F30721F74093BB005093BC0099
:100580006093BD007093BE009093B700FF90EF9012
:10059000DF90CF9008950E94DC010E948502809137
:1005A000BA00813019F40E94EB00089560E081E008
:1005B0000E94E7046091BB007091BC008091BD0077
:1005C0009091BE000E94560408950E9423038093D8
:1005D000BF00882309F10E94DC038091BF008837A7
:1005E00031F0982F9B7F9B3211F08D3219F40E94CD
:1005F000A800089590ED980F9A3018F40E94BA0060
:1006000008958D3329F40E94CB020E94CB020895F5
:10061000833611F40E947E0008950E9449000E94D2
:10062000E502FDCF61E08CE00E940C0561E08DE009
:100630000E940C0561E08EE00E940C0561E08FE0F5
:100640000E940C050895DF92EF92FF920F931F9383
:10065000CF93DF930F2EF6EAEF2EF0E0FF2EF02D72
:10066000D12CDCE060E08D2F0E940C058701CAE1EF
:100670008C2F0E94930581110DC0F801D0808C2F22
:100680000E9493058823D9F38FE39CE90197F1F742
:1006900000C00000CF5F0F5F1F4FCE3149F761E010
:1006A0008D2F0E940C05DF5F94E0E90EF11CD03124
:1006B000C9F68D2DDF91CF911F910F91FF90EF9093
:1006C000DF900895CF93C82F60E081E00E940C0571
:1006D00060E082E00E940C05C4FB662760F983E0BD
:1006E0000E940C05C5FB662760F984E00E940C059A
:1006F000C6FB662760F985E00E940C056C2F661F1B
:100700006627661F86E00E940C0561E082E00E9479
:100710000C058FE99FE00197F1F700C0000060E051
:1007200082E00E940C056C2F617083E00E940C0532
:10073000C1FB662760F984E00E940C05C2FB6627B6
:1007400060F985E00E940C05C3FB662760F986E02E
:100750000E940C0561E082E00E940C058FE99FE099
:100760000197F1F700C0000060E082E00E940C05F4
:100770008FE19EE40197F1F700C00000CF9108954A
:1007800083E30E94620382E30E94620388E20E9484
:10079000620381E00E94620386E00E9462038CE0B3
:1007A0000E94620382E00E9462038FE19EE401974F
:1007B000F1F700C000000895CF93C82F61E081E0F9
:1007C0000E940C0560E082E00E940C05C4FB6627D5
:1007D00060F983E00E940C05C5FB662760F984E0A0
:1007E0000E940C05C6FB662760F985E00E940C0597
:1007F0006C2F661F6627661F86E00E940C0561E06D
:1008000082E00E940C058FE99FE00197F1F700C09C
:10081000000060E082E00E940C056C2F617083E0B4
:100820000E940C05C1FB662760F984E00E940C055C
:10083000C2FB662760F985E00E940C05C3FB6627B2
:1008400060F986E00E940C0561E082E00E940C05E0
:100850008FE99FE00197F1F700C0000060E082E0BF
:100860000E940C058FE19EE40197F1F700C00000A3
:10087000CF9108950F931F93CF93FC01808188231C
:1008800059F08F01C0E00E94DC03CF5FF801EC0F4C
:10089000F11D80818111F7CF8FE19EE40197F1F77F
:1008A00000C00000CF911F910F9108954F925F9269
:1008B0006F927F928F929F92AF92BF92CF92DF9270
:1008C000EF92FF926B017C01611571058105910525
:1008D00051F480E30E94DC0367C01C141D041E0455
:1008E0001F047CF061C09923C4F78DE20E94DC03F1
:1008F000F094E094D094C094C11CD11CE11CF11C74
:10090000ECCF61E070E080E090E00F2EFAE08F2EF7
:10091000912CA12CB12CF02DDC01CB01880F991F5B
:10092000AA1FBB1F2C013D01440C551C661C771CE3
:10093000440C551C661C771C480E591E6A1E7B1EF3
:10094000C701B601A50194010E945906640D751DE9
:10095000861D971DC22ED32EE42EF52E1C141D04C9
:100960001E041F04CCF26230710581059105E4F08C
:100970000F2EFAE08F2E912CA12CB12CF02DA50179
:1009800094010E945906C22ED32EE42EF52E80E348
:10099000860F0E94DC036C2D7D2D8E2D9F2D6230E5
:1009A0007105810591055CF78FE19EE40197F1F7F0
:1009B00000C00000FF90EF90DF90CF90BF90AF900D
:1009C0009F908F907F906F905F904F900895CF93FE
:1009D000DF9300D0CDB7DEB790E8998390EC9A838F
:1009E000FE01E80FF11D8181860F0E9462038FE1F5
:1009F0009EE40197F1F700C000000F900F90DF9187
:100A0000CF91089581E00E9462038FE19EE40197F7
:100A1000F1F700C000000895982F96959695969549
:100A20008770662309F43FC0613009F07BC09130C4
:100A300099F028F09230E9F0933041F108954BB3EA
:100A400021E030E0B90102C0660F771F8A95E2F716
:100A5000CB01842B8BBB089548B321E030E0B90172
:100A600002C0660F771F8A95E2F7CB01842B88BB03
:100A7000089545B321E030E0B90102C0660F771F49
:100A80008A95E2F7CB01842B85BB089542B321E020
:100A900030E0B90102C0660F771F8A95E2F7CB01FB
:100AA000842B82BB08959130A1F028F09230F9F0A8
:100AB000933059F108954BB321E030E0B90102C001
:100AC000660F771F8A95E2F7CB01809584238BBB55
:100AD000089548B321E030E0B90102C0660F771FE6
:100AE0008A95E2F7CB018095842388BB089545B3AE
:100AF00021E030E0B90102C0660F771F8A95E2F766
:100B0000CB018095842385BB089542B321E030E07A
:100B1000B90102C0660F771F8A95E2F7CB01809575
:100B2000842382BB0895282F277086958695869505
:100B3000813079F028F08230A9F08330E1F024C0D0
:100B400089B390E002C0959587952A95E2F7817068
:100B5000089586B390E002C0959587952A95E2F7AF
:100B60008170089583B390E002C0959587952A958A
:100B7000E2F78170089580B390E002C09595879563
:100B80002A95E2F78170089580E00895E0E6F0E0AC
:100B90004CE750E061E070E08081982F9695969543
:100BA000969587702181222319F02130C9F16BC0FD
:100BB000913091F028F09230D9F0933029F163C050
:100BC0009AB39B0102C0220F331F8A95E2F7822F4E
:100BD000809589238ABB57C097B39B0102C0220F1F
:100BE000331F8A95E2F7822F8095892387BB4BC0FC
:100BF00094B39B0102C0220F331F8A95E2F7822F24
:100C00008095892384BB3FC091B39B0102C0220F12
:100C1000331F8A95E2F7822F8095892381BB33C0E9
:100C2000913089F028F09230C9F0933011F12BC047
:100C30002AB3DB0102C0AA0FBB1F8A95E2F7CD01E0
:100C4000822B8ABB20C027B3DB0102C0AA0FBB1FC7
:100C50008A95E2F7CD01822B87BB15C024B3DB0157
:100C600002C0AA0FBB1F8A95E2F7CD01822B84BB7D
:100C70000AC021B3DB0102C0AA0FBB1F8A95E2F7AD
:100C8000CD01822B81BB3296E417F50709F084CFA2
:100C90000895DB018F939F930E947806BF91AF91D7
:100CA000A29F800D911DA39F900DB29F900D1124C6
:100CB0000895052E97FB1EF400940E94700657FDC0
:100CC00007D00E94830607FC03D04EF40C947006F4
:100CD00050954095309521953F4F4F4F5F4F089568
:100CE00090958095709561957F4F8F4F9F4F089598
:100CF0000E94A506A59F900DB49F900DA49F800D06
:100D0000911D11240895A1E21A2EAA1BBB1BFD01FF
:100D10000DC0AA1FBB1FEE1FFF1FA217B307E407DA
:100D2000F50720F0A21BB30BE40BF50B661F771F32
:100D3000881F991F1A9469F7609570958095909512
:100D40009B01AC01BD01CF010895A29FB001B39FEB
:100D5000C001A39F700D811D1124911DB29F700DC4
:0C0D6000811D1124911D0895F894FFCF0F
:100D6C000101020103010401050106010C010D0141
:100D7C000E010F011A001B001C001D0043616C6367
:100D8C00756C61746F72004D6164652042793A0034
:100D9C00416C69204D616D646F68004D6174682011
:100DAC004572726F72003132332B3435362D373831
:060DBC0039783D30632F81
:00000001FF
